{"abi":[{"type":"function","name":"UPGRADE_INTERFACE_VERSION","inputs":[],"outputs":[{"name":"","type":"string","internalType":"string"}],"stateMutability":"view"},{"type":"function","name":"approve","inputs":[{"name":"to","type":"address","internalType":"address"},{"name":"tokenId","type":"uint256","internalType":"uint256"}],"outputs":[],"stateMutability":"nonpayable"},{"type":"function","name":"balanceOf","inputs":[{"name":"owner","type":"address","internalType":"address"}],"outputs":[{"name":"","type":"uint256","internalType":"uint256"}],"stateMutability":"view"},{"type":"function","name":"getApproved","inputs":[{"name":"tokenId","type":"uint256","internalType":"uint256"}],"outputs":[{"name":"","type":"address","internalType":"address"}],"stateMutability":"view"},{"type":"function","name":"isApprovedForAll","inputs":[{"name":"owner","type":"address","internalType":"address"},{"name":"operator","type":"address","internalType":"address"}],"outputs":[{"name":"","type":"bool","internalType":"bool"}],"stateMutability":"view"},{"type":"function","name":"name","inputs":[],"outputs":[{"name":"","type":"string","internalType":"string"}],"stateMutability":"view"},{"type":"function","name":"owner","inputs":[],"outputs":[{"name":"","type":"address","internalType":"address"}],"stateMutability":"view"},{"type":"function","name":"ownerOf","inputs":[{"name":"tokenId","type":"uint256","internalType":"uint256"}],"outputs":[{"name":"","type":"address","internalType":"address"}],"stateMutability":"view"},{"type":"function","name":"proxiableUUID","inputs":[],"outputs":[{"name":"","type":"bytes32","internalType":"bytes32"}],"stateMutability":"view"},{"type":"function","name":"renounceOwnership","inputs":[],"outputs":[],"stateMutability":"nonpayable"},{"type":"function","name":"safeMint","inputs":[{"name":"to","type":"address","internalType":"address"}],"outputs":[],"stateMutability":"nonpayable"},{"type":"function","name":"safeTransferFrom","inputs":[{"name":"from","type":"address","internalType":"address"},{"name":"to","type":"address","internalType":"address"},{"name":"tokenId","type":"uint256","internalType":"uint256"}],"outputs":[],"stateMutability":"nonpayable"},{"type":"function","name":"safeTransferFrom","inputs":[{"name":"from","type":"address","internalType":"address"},{"name":"to","type":"address","internalType":"address"},{"name":"tokenId","type":"uint256","internalType":"uint256"},{"name":"data","type":"bytes","internalType":"bytes"}],"outputs":[],"stateMutability":"nonpayable"},{"type":"function","name":"setApprovalForAll","inputs":[{"name":"operator","type":"address","internalType":"address"},{"name":"approved","type":"bool","internalType":"bool"}],"outputs":[],"stateMutability":"nonpayable"},{"type":"function","name":"supportsInterface","inputs":[{"name":"interfaceId","type":"bytes4","internalType":"bytes4"}],"outputs":[{"name":"","type":"bool","internalType":"bool"}],"stateMutability":"view"},{"type":"function","name":"symbol","inputs":[],"outputs":[{"name":"","type":"string","internalType":"string"}],"stateMutability":"view"},{"type":"function","name":"tokenId","inputs":[],"outputs":[{"name":"","type":"uint256","internalType":"uint256"}],"stateMutability":"view"},{"type":"function","name":"tokenURI","inputs":[{"name":"tokenId","type":"uint256","internalType":"uint256"}],"outputs":[{"name":"","type":"string","internalType":"string"}],"stateMutability":"view"},{"type":"function","name":"transferFrom","inputs":[{"name":"from","type":"address","internalType":"address"},{"name":"to","type":"address","internalType":"address"},{"name":"tokenId","type":"uint256","internalType":"uint256"}],"outputs":[],"stateMutability":"nonpayable"},{"type":"function","name":"transferOwnership","inputs":[{"name":"newOwner","type":"address","internalType":"address"}],"outputs":[],"stateMutability":"nonpayable"},{"type":"function","name":"upgradeToAndCall","inputs":[{"name":"newImplementation","type":"address","internalType":"address"},{"name":"data","type":"bytes","internalType":"bytes"}],"outputs":[],"stateMutability":"payable"},{"type":"event","name":"Approval","inputs":[{"name":"owner","type":"address","indexed":true,"internalType":"address"},{"name":"approved","type":"address","indexed":true,"internalType":"address"},{"name":"tokenId","type":"uint256","indexed":true,"internalType":"uint256"}],"anonymous":false},{"type":"event","name":"ApprovalForAll","inputs":[{"name":"owner","type":"address","indexed":true,"internalType":"address"},{"name":"operator","type":"address","indexed":true,"internalType":"address"},{"name":"approved","type":"bool","indexed":false,"internalType":"bool"}],"anonymous":false},{"type":"event","name":"Initialized","inputs":[{"name":"version","type":"uint64","indexed":false,"internalType":"uint64"}],"anonymous":false},{"type":"event","name":"OwnershipTransferred","inputs":[{"name":"previousOwner","type":"address","indexed":true,"internalType":"address"},{"name":"newOwner","type":"address","indexed":true,"internalType":"address"}],"anonymous":false},{"type":"event","name":"Transfer","inputs":[{"name":"from","type":"address","indexed":true,"internalType":"address"},{"name":"to","type":"address","indexed":true,"internalType":"address"},{"name":"tokenId","type":"uint256","indexed":true,"internalType":"uint256"}],"anonymous":false},{"type":"event","name":"Upgraded","inputs":[{"name":"implementation","type":"address","indexed":true,"internalType":"address"}],"anonymous":false},{"type":"error","name":"AddressEmptyCode","inputs":[{"name":"target","type":"address","internalType":"address"}]},{"type":"error","name":"ERC1967InvalidImplementation","inputs":[{"name":"implementation","type":"address","internalType":"address"}]},{"type":"error","name":"ERC1967NonPayable","inputs":[]},{"type":"error","name":"ERC721IncorrectOwner","inputs":[{"name":"sender","type":"address","internalType":"address"},{"name":"tokenId","type":"uint256","internalType":"uint256"},{"name":"owner","type":"address","internalType":"address"}]},{"type":"error","name":"ERC721InsufficientApproval","inputs":[{"name":"operator","type":"address","internalType":"address"},{"name":"tokenId","type":"uint256","internalType":"uint256"}]},{"type":"error","name":"ERC721InvalidApprover","inputs":[{"name":"approver","type":"address","internalType":"address"}]},{"type":"error","name":"ERC721InvalidOperator","inputs":[{"name":"operator","type":"address","internalType":"address"}]},{"type":"error","name":"ERC721InvalidOwner","inputs":[{"name":"owner","type":"address","internalType":"address"}]},{"type":"error","name":"ERC721InvalidReceiver","inputs":[{"name":"receiver","type":"address","internalType":"address"}]},{"type":"error","name":"ERC721InvalidSender","inputs":[{"name":"sender","type":"address","internalType":"address"}]},{"type":"error","name":"ERC721NonexistentToken","inputs":[{"name":"tokenId","type":"uint256","internalType":"uint256"}]},{"type":"error","name":"FailedInnerCall","inputs":[]},{"type":"error","name":"InvalidInitialization","inputs":[]},{"type":"error","name":"NotInitializing","inputs":[]},{"type":"error","name":"OwnableInvalidOwner","inputs":[{"name":"owner","type":"address","internalType":"address"}]},{"type":"error","name":"OwnableUnauthorizedAccount","inputs":[{"name":"account","type":"address","internalType":"address"}]},{"type":"error","name":"UUPSUnauthorizedCallContext","inputs":[]},{"type":"error","name":"UUPSUnsupportedProxiableUUID","inputs":[{"name":"slot","type":"bytes32","internalType":"bytes32"}]}],"bytecode":{"object":"0x60a06040523060805234801561001457600080fd5b50608051611bbc61003e60003960008181610bc901528181610bf20152610d700152611bbc6000f3fe60806040526004361061016a5760003560e01c80636352211e116100cb578063a22cb4651161007f578063c87b56dd11610059578063c87b56dd146103f7578063e985e9c514610417578063f2fde38b1461047f57600080fd5b8063a22cb4651461036e578063ad3cb1cc1461038e578063b88d4fde146103d757600080fd5b8063715018a6116100b0578063715018a6146103075780638da5cb5b1461031c57806395d89b411461035957600080fd5b80636352211e146102c757806370a08231146102e757600080fd5b806323b872dd1161012257806342842e0e1161010757806342842e0e1461027f5780634f1ef2861461029f57806352d1902d146102b257600080fd5b806323b872dd1461023f57806340d097c31461025f57600080fd5b8063081812fc11610153578063081812fc146101c6578063095ea7b3146101fe57806317d70f7c1461022057600080fd5b806301ffc9a71461016f57806306fdde03146101a4575b600080fd5b34801561017b57600080fd5b5061018f61018a36600461176a565b61049f565b60405190151581526020015b60405180910390f35b3480156101b057600080fd5b506101b961053c565b60405161019b91906117d7565b3480156101d257600080fd5b506101e66101e13660046117ea565b6105f2565b6040516001600160a01b03909116815260200161019b565b34801561020a57600080fd5b5061021e61021936600461181f565b61063a565b005b34801561022c57600080fd5b506000545b60405190815260200161019b565b34801561024b57600080fd5b5061021e61025a366004611849565b610649565b34801561026b57600080fd5b5061021e61027a366004611885565b6106f2565b34801561028b57600080fd5b5061021e61029a366004611849565b610731565b61021e6102ad366004611943565b610751565b3480156102be57600080fd5b5061023161076c565b3480156102d357600080fd5b506101e66102e23660046117ea565b61079b565b3480156102f357600080fd5b50610231610302366004611885565b6107a6565b34801561031357600080fd5b5061021e61082d565b34801561032857600080fd5b507f9016d09d72d40fdae2fd8ceac6b6234c7706214fd39c1cd1e609a0528c199300546001600160a01b03166101e6565b34801561036557600080fd5b506101b9610841565b34801561037a57600080fd5b5061021e610389366004611991565b610892565b34801561039a57600080fd5b506101b96040518060400160405280600581526020017f352e302e3000000000000000000000000000000000000000000000000000000081525081565b3480156103e357600080fd5b5061021e6103f23660046119cd565b61089d565b34801561040357600080fd5b506101b96104123660046117ea565b6108b4565b34801561042357600080fd5b5061018f610432366004611a35565b6001600160a01b0391821660009081527f80bb2b638cc20bc4d0a60d66940f3ab4a00c1d7b313497ca82fb0b4ab00793056020908152604080832093909416825291909152205460ff1690565b34801561048b57600080fd5b5061021e61049a366004611885565b610929565b60006001600160e01b031982167f80ac58cd00000000000000000000000000000000000000000000000000000000148061050257506001600160e01b031982167f5b5e139f00000000000000000000000000000000000000000000000000000000145b8061053657507f01ffc9a7000000000000000000000000000000000000000000000000000000006001600160e01b03198316145b92915050565b7f80bb2b638cc20bc4d0a60d66940f3ab4a00c1d7b313497ca82fb0b4ab0079300805460609190819061056e90611a68565b80601f016020809104026020016040519081016040528092919081815260200182805461059a90611a68565b80156105e75780601f106105bc576101008083540402835291602001916105e7565b820191906000526020600020905b8154815290600101906020018083116105ca57829003601f168201915b505050505091505090565b60006105fd8261097d565b5060008281527f80bb2b638cc20bc4d0a60d66940f3ab4a00c1d7b313497ca82fb0b4ab007930460205260409020546001600160a01b0316610536565b6106458282336109d5565b5050565b6001600160a01b03821661067857604051633250574960e11b8152600060048201526024015b60405180910390fd5b60006106858383336109e2565b9050836001600160a01b0316816001600160a01b0316146106ec576040517f64283d7b0000000000000000000000000000000000000000000000000000000081526001600160a01b038086166004830152602482018490528216604482015260640161066f565b50505050565b6106fa610b30565b60008054908061070983611aa2565b909155505060008054908061071d83611aa2565b919050555061072e81600054610ba4565b50565b61074c8383836040518060200160405280600081525061089d565b505050565b610759610bbe565b61076282610c75565b6106458282610c7d565b6000610776610d65565b507f360894a13ba1a3210667c828492db98dca3e2076cc3735a920a3ca505d382bbc90565b60006105368261097d565b60007f80bb2b638cc20bc4d0a60d66940f3ab4a00c1d7b313497ca82fb0b4ab00793006001600160a01b03831661080c576040517f89c62b640000000000000000000000000000000000000000000000000000000081526000600482015260240161066f565b6001600160a01b039092166000908152600390920160205250604090205490565b610835610b30565b61083f6000610dae565b565b7f80bb2b638cc20bc4d0a60d66940f3ab4a00c1d7b313497ca82fb0b4ab007930180546060917f80bb2b638cc20bc4d0a60d66940f3ab4a00c1d7b313497ca82fb0b4ab00793009161056e90611a68565b610645338383610e2c565b6108a8848484610649565b6106ec84848484610f08565b60606108bf8261097d565b5060006108d760408051602081019091526000815290565b905060008151116108f75760405180602001604052806000815250610922565b8061090184611031565b604051602001610912929190611ac9565b6040516020818303038152906040525b9392505050565b610931610b30565b6001600160a01b038116610974576040517f1e4fbdf70000000000000000000000000000000000000000000000000000000081526000600482015260240161066f565b61072e81610dae565b60008181527f80bb2b638cc20bc4d0a60d66940f3ab4a00c1d7b313497ca82fb0b4ab007930260205260408120546001600160a01b03168061053657604051637e27328960e01b81526004810184905260240161066f565b61074c83838360016110d1565b60008281527f80bb2b638cc20bc4d0a60d66940f3ab4a00c1d7b313497ca82fb0b4ab007930260205260408120547f80bb2b638cc20bc4d0a60d66940f3ab4a00c1d7b313497ca82fb0b4ab0079300906001600160a01b0390811690841615610a5057610a5081858761125d565b6001600160a01b03811615610a9057610a6d6000866000806110d1565b6001600160a01b0381166000908152600383016020526040902080546000190190555b6001600160a01b03861615610ac1576001600160a01b03861660009081526003830160205260409020805460010190555b6000858152600283016020526040808220805473ffffffffffffffffffffffffffffffffffffffff19166001600160a01b038a811691821790925591518893918516917fddf252ad1be2c89b69c2b068fc378daa952ba7f163c4a11628f55a4df523b3ef91a495945050505050565b33610b627f9016d09d72d40fdae2fd8ceac6b6234c7706214fd39c1cd1e609a0528c199300546001600160a01b031690565b6001600160a01b03161461083f576040517f118cdaa700000000000000000000000000000000000000000000000000000000815233600482015260240161066f565b6106458282604051806020016040528060008152506112da565b306001600160a01b037f0000000000000000000000000000000000000000000000000000000000000000161480610c5757507f00000000000000000000000000000000000000000000000000000000000000006001600160a01b0316610c4b7f360894a13ba1a3210667c828492db98dca3e2076cc3735a920a3ca505d382bbc546001600160a01b031690565b6001600160a01b031614155b1561083f5760405163703e46dd60e11b815260040160405180910390fd5b61072e610b30565b816001600160a01b03166352d1902d6040518163ffffffff1660e01b8152600401602060405180830381865afa925050508015610cd7575060408051601f3d908101601f19168201909252610cd491810190611af8565b60015b610cff57604051634c9c8ce360e01b81526001600160a01b038316600482015260240161066f565b7f360894a13ba1a3210667c828492db98dca3e2076cc3735a920a3ca505d382bbc8114610d5b576040517faa1d49a40000000000000000000000000000000000000000000000000000000081526004810182905260240161066f565b61074c83836112f1565b306001600160a01b037f0000000000000000000000000000000000000000000000000000000000000000161461083f5760405163703e46dd60e11b815260040160405180910390fd5b7f9016d09d72d40fdae2fd8ceac6b6234c7706214fd39c1cd1e609a0528c199300805473ffffffffffffffffffffffffffffffffffffffff1981166001600160a01b03848116918217845560405192169182907f8be0079c531659141344cd1fd0a4f28419497f9722a3daafe3b4186f6b6457e090600090a3505050565b7f80bb2b638cc20bc4d0a60d66940f3ab4a00c1d7b313497ca82fb0b4ab00793006001600160a01b038316610e98576040517f5b08ba180000000000000000000000000000000000000000000000000000000081526001600160a01b038416600482015260240161066f565b6001600160a01b038481166000818152600584016020908152604080832094881680845294825291829020805460ff191687151590811790915591519182527f17307eab39ab6107e8899845ad3d59bd9653f200f220920489ca2b5937696c31910160405180910390a350505050565b6001600160a01b0383163b156106ec57604051630a85bd0160e11b81526001600160a01b0384169063150b7a0290610f4a903390889087908790600401611b11565b6020604051808303816000875af1925050508015610f85575060408051601f3d908101601f19168201909252610f8291810190611b4d565b60015b610fee573d808015610fb3576040519150601f19603f3d011682016040523d82523d6000602084013e610fb8565b606091505b508051600003610fe657604051633250574960e11b81526001600160a01b038516600482015260240161066f565b805181602001fd5b6001600160e01b03198116630a85bd0160e11b1461102a57604051633250574960e11b81526001600160a01b038516600482015260240161066f565b5050505050565b6060600061103e83611347565b600101905060008167ffffffffffffffff81111561105e5761105e6118a0565b6040519080825280601f01601f191660200182016040528015611088576020820181803683370190505b5090508181016020015b600019017f3031323334353637383961626364656600000000000000000000000000000000600a86061a8153600a850494508461109257509392505050565b7f80bb2b638cc20bc4d0a60d66940f3ab4a00c1d7b313497ca82fb0b4ab0079300818061110657506001600160a01b03831615155b1561121f5760006111168561097d565b90506001600160a01b038416158015906111425750836001600160a01b0316816001600160a01b031614155b801561119357506001600160a01b0380821660009081527f80bb2b638cc20bc4d0a60d66940f3ab4a00c1d7b313497ca82fb0b4ab0079305602090815260408083209388168352929052205460ff16155b156111d5576040517fa9fbf51f0000000000000000000000000000000000000000000000000000000081526001600160a01b038516600482015260240161066f565b821561121d5784866001600160a01b0316826001600160a01b03167f8c5be1e5ebec7d5bd14f71427d1e84f3dd0314c0f7b2291e5b200ac8c7c3b92560405160405180910390a45b505b6000938452600401602052505060409020805473ffffffffffffffffffffffffffffffffffffffff19166001600160a01b0392909216919091179055565b611268838383611429565b61074c576001600160a01b03831661129657604051637e27328960e01b81526004810182905260240161066f565b6040517f177e802f0000000000000000000000000000000000000000000000000000000081526001600160a01b03831660048201526024810182905260440161066f565b6112e483836114ed565b61074c6000848484610f08565b6112fa8261156b565b6040516001600160a01b038316907fbc7cd75a20ee27fd9adebab32041f755214dbc6bffa90cc0225b39da2e5c2d3b90600090a280511561133f5761074c82826115ef565b610645611665565b6000807a184f03e93ff9f4daa797ed6e38ed64bf6a1f0100000000000000008310611390577a184f03e93ff9f4daa797ed6e38ed64bf6a1f010000000000000000830492506040015b6d04ee2d6d415b85acef810000000083106113bc576d04ee2d6d415b85acef8100000000830492506020015b662386f26fc1000083106113da57662386f26fc10000830492506010015b6305f5e10083106113f2576305f5e100830492506008015b612710831061140657612710830492506004015b60648310611418576064830492506002015b600a83106105365760010192915050565b60006001600160a01b038316158015906114e55750826001600160a01b0316846001600160a01b031614806114a257506001600160a01b0380851660009081527f80bb2b638cc20bc4d0a60d66940f3ab4a00c1d7b313497ca82fb0b4ab0079305602090815260408083209387168352929052205460ff165b806114e5575060008281527f80bb2b638cc20bc4d0a60d66940f3ab4a00c1d7b313497ca82fb0b4ab007930460205260409020546001600160a01b038481169116145b949350505050565b6001600160a01b03821661151757604051633250574960e11b81526000600482015260240161066f565b6000611525838360006109e2565b90506001600160a01b0381161561074c576040517f73c6ac6e0000000000000000000000000000000000000000000000000000000081526000600482015260240161066f565b806001600160a01b03163b6000036115a157604051634c9c8ce360e01b81526001600160a01b038216600482015260240161066f565b7f360894a13ba1a3210667c828492db98dca3e2076cc3735a920a3ca505d382bbc805473ffffffffffffffffffffffffffffffffffffffff19166001600160a01b0392909216919091179055565b6060600080846001600160a01b03168460405161160c9190611b6a565b600060405180830381855af49150503d8060008114611647576040519150601f19603f3d011682016040523d82523d6000602084013e61164c565b606091505b509150915061165c85838361169d565b95945050505050565b341561083f576040517fb398979f00000000000000000000000000000000000000000000000000000000815260040160405180910390fd5b6060826116b2576116ad82611712565b610922565b81511580156116c957506001600160a01b0384163b155b1561170b576040517f9996b3150000000000000000000000000000000000000000000000000000000081526001600160a01b038516600482015260240161066f565b5080610922565b8051156117225780518082602001fd5b6040517f1425ea4200000000000000000000000000000000000000000000000000000000815260040160405180910390fd5b6001600160e01b03198116811461072e57600080fd5b60006020828403121561177c57600080fd5b813561092281611754565b60005b838110156117a257818101518382015260200161178a565b50506000910152565b600081518084526117c3816020860160208601611787565b601f01601f19169290920160200192915050565b60208152600061092260208301846117ab565b6000602082840312156117fc57600080fd5b5035919050565b80356001600160a01b038116811461181a57600080fd5b919050565b6000806040838503121561183257600080fd5b61183b83611803565b946020939093013593505050565b60008060006060848603121561185e57600080fd5b61186784611803565b925061187560208501611803565b9150604084013590509250925092565b60006020828403121561189757600080fd5b61092282611803565b634e487b7160e01b600052604160045260246000fd5b600082601f8301126118c757600080fd5b813567ffffffffffffffff808211156118e2576118e26118a0565b604051601f8301601f19908116603f0116810190828211818310171561190a5761190a6118a0565b8160405283815286602085880101111561192357600080fd5b836020870160208301376000602085830101528094505050505092915050565b6000806040838503121561195657600080fd5b61195f83611803565b9150602083013567ffffffffffffffff81111561197b57600080fd5b611987858286016118b6565b9150509250929050565b600080604083850312156119a457600080fd5b6119ad83611803565b9150602083013580151581146119c257600080fd5b809150509250929050565b600080600080608085870312156119e357600080fd5b6119ec85611803565b93506119fa60208601611803565b925060408501359150606085013567ffffffffffffffff811115611a1d57600080fd5b611a29878288016118b6565b91505092959194509250565b60008060408385031215611a4857600080fd5b611a5183611803565b9150611a5f60208401611803565b90509250929050565b600181811c90821680611a7c57607f821691505b602082108103611a9c57634e487b7160e01b600052602260045260246000fd5b50919050565b600060018201611ac257634e487b7160e01b600052601160045260246000fd5b5060010190565b60008351611adb818460208801611787565b835190830190611aef818360208801611787565b01949350505050565b600060208284031215611b0a57600080fd5b5051919050565b60006001600160a01b03808716835280861660208401525083604083015260806060830152611b4360808301846117ab565b9695505050505050565b600060208284031215611b5f57600080fd5b815161092281611754565b60008251611b7c818460208701611787565b919091019291505056fea26469706673582212208dd2c66402d3ce78d639c333ca62fd4614ecfac993e7fa8efc39cf55687424b964736f6c63430008140033","linkReferences":{}},"methodIdentifiers":{"UPGRADE_INTERFACE_VERSION()":"ad3cb1cc","approve(address,uint256)":"095ea7b3","balanceOf(address)":"70a08231","getApproved(uint256)":"081812fc","isApprovedForAll(address,address)":"e985e9c5","name()":"06fdde03","owner()":"8da5cb5b","ownerOf(uint256)":"6352211e","proxiableUUID()":"52d1902d","renounceOwnership()":"715018a6","safeMint(address)":"40d097c3","safeTransferFrom(address,address,uint256)":"42842e0e","safeTransferFrom(address,address,uint256,bytes)":"b88d4fde","setApprovalForAll(address,bool)":"a22cb465","supportsInterface(bytes4)":"01ffc9a7","symbol()":"95d89b41","tokenId()":"17d70f7c","tokenURI(uint256)":"c87b56dd","transferFrom(address,address,uint256)":"23b872dd","transferOwnership(address)":"f2fde38b","upgradeToAndCall(address,bytes)":"4f1ef286"},"storageLayout":{"storage":[{"astId":54984,"contract":"src/MyNFTV2.sol:MyNFTV2","label":"_tokenId","offset":0,"slot":"0","type":"t_uint256"}],"types":{"t_uint256":{"encoding":"inplace","label":"uint256","numberOfBytes":"32"}}},"id":59}