{"abi":[{"type":"function","name":"UPGRADE_INTERFACE_VERSION","inputs":[],"outputs":[{"name":"","type":"string","internalType":"string"}],"stateMutability":"view"},{"type":"function","name":"approve","inputs":[{"name":"to","type":"address","internalType":"address"},{"name":"tokenId","type":"uint256","internalType":"uint256"}],"outputs":[],"stateMutability":"nonpayable"},{"type":"function","name":"balanceOf","inputs":[{"name":"owner","type":"address","internalType":"address"}],"outputs":[{"name":"","type":"uint256","internalType":"uint256"}],"stateMutability":"view"},{"type":"function","name":"getApproved","inputs":[{"name":"tokenId","type":"uint256","internalType":"uint256"}],"outputs":[{"name":"","type":"address","internalType":"address"}],"stateMutability":"view"},{"type":"function","name":"initialize","inputs":[{"name":"fnOwner","type":"address","internalType":"address"}],"outputs":[],"stateMutability":"nonpayable"},{"type":"function","name":"isApprovedForAll","inputs":[{"name":"owner","type":"address","internalType":"address"},{"name":"operator","type":"address","internalType":"address"}],"outputs":[{"name":"","type":"bool","internalType":"bool"}],"stateMutability":"view"},{"type":"function","name":"name","inputs":[],"outputs":[{"name":"","type":"string","internalType":"string"}],"stateMutability":"view"},{"type":"function","name":"owner","inputs":[],"outputs":[{"name":"","type":"address","internalType":"address"}],"stateMutability":"view"},{"type":"function","name":"ownerOf","inputs":[{"name":"tokenId","type":"uint256","internalType":"uint256"}],"outputs":[{"name":"","type":"address","internalType":"address"}],"stateMutability":"view"},{"type":"function","name":"proxiableUUID","inputs":[],"outputs":[{"name":"","type":"bytes32","internalType":"bytes32"}],"stateMutability":"view"},{"type":"function","name":"renounceOwnership","inputs":[],"outputs":[],"stateMutability":"nonpayable"},{"type":"function","name":"safeMint","inputs":[{"name":"to","type":"address","internalType":"address"}],"outputs":[],"stateMutability":"nonpayable"},{"type":"function","name":"safeMintV2","inputs":[{"name":"to","type":"address","internalType":"address"}],"outputs":[],"stateMutability":"nonpayable"},{"type":"function","name":"safeTransferFrom","inputs":[{"name":"from","type":"address","internalType":"address"},{"name":"to","type":"address","internalType":"address"},{"name":"tokenId","type":"uint256","internalType":"uint256"}],"outputs":[],"stateMutability":"nonpayable"},{"type":"function","name":"safeTransferFrom","inputs":[{"name":"from","type":"address","internalType":"address"},{"name":"to","type":"address","internalType":"address"},{"name":"tokenId","type":"uint256","internalType":"uint256"},{"name":"data","type":"bytes","internalType":"bytes"}],"outputs":[],"stateMutability":"nonpayable"},{"type":"function","name":"setApprovalForAll","inputs":[{"name":"operator","type":"address","internalType":"address"},{"name":"approved","type":"bool","internalType":"bool"}],"outputs":[],"stateMutability":"nonpayable"},{"type":"function","name":"supportsInterface","inputs":[{"name":"interfaceId","type":"bytes4","internalType":"bytes4"}],"outputs":[{"name":"","type":"bool","internalType":"bool"}],"stateMutability":"view"},{"type":"function","name":"symbol","inputs":[],"outputs":[{"name":"","type":"string","internalType":"string"}],"stateMutability":"view"},{"type":"function","name":"tokenId","inputs":[],"outputs":[{"name":"","type":"uint256","internalType":"uint256"}],"stateMutability":"view"},{"type":"function","name":"tokenURI","inputs":[{"name":"tokenId","type":"uint256","internalType":"uint256"}],"outputs":[{"name":"","type":"string","internalType":"string"}],"stateMutability":"view"},{"type":"function","name":"transferFrom","inputs":[{"name":"from","type":"address","internalType":"address"},{"name":"to","type":"address","internalType":"address"},{"name":"tokenId","type":"uint256","internalType":"uint256"}],"outputs":[],"stateMutability":"nonpayable"},{"type":"function","name":"transferOwnership","inputs":[{"name":"newOwner","type":"address","internalType":"address"}],"outputs":[],"stateMutability":"nonpayable"},{"type":"function","name":"upgradeToAndCall","inputs":[{"name":"newImplementation","type":"address","internalType":"address"},{"name":"data","type":"bytes","internalType":"bytes"}],"outputs":[],"stateMutability":"payable"},{"type":"event","name":"Approval","inputs":[{"name":"owner","type":"address","indexed":true,"internalType":"address"},{"name":"approved","type":"address","indexed":true,"internalType":"address"},{"name":"tokenId","type":"uint256","indexed":true,"internalType":"uint256"}],"anonymous":false},{"type":"event","name":"ApprovalForAll","inputs":[{"name":"owner","type":"address","indexed":true,"internalType":"address"},{"name":"operator","type":"address","indexed":true,"internalType":"address"},{"name":"approved","type":"bool","indexed":false,"internalType":"bool"}],"anonymous":false},{"type":"event","name":"Initialized","inputs":[{"name":"version","type":"uint64","indexed":false,"internalType":"uint64"}],"anonymous":false},{"type":"event","name":"OwnershipTransferred","inputs":[{"name":"previousOwner","type":"address","indexed":true,"internalType":"address"},{"name":"newOwner","type":"address","indexed":true,"internalType":"address"}],"anonymous":false},{"type":"event","name":"Transfer","inputs":[{"name":"from","type":"address","indexed":true,"internalType":"address"},{"name":"to","type":"address","indexed":true,"internalType":"address"},{"name":"tokenId","type":"uint256","indexed":true,"internalType":"uint256"}],"anonymous":false},{"type":"event","name":"Upgraded","inputs":[{"name":"implementation","type":"address","indexed":true,"internalType":"address"}],"anonymous":false},{"type":"error","name":"AddressEmptyCode","inputs":[{"name":"target","type":"address","internalType":"address"}]},{"type":"error","name":"ERC1967InvalidImplementation","inputs":[{"name":"implementation","type":"address","internalType":"address"}]},{"type":"error","name":"ERC1967NonPayable","inputs":[]},{"type":"error","name":"ERC721IncorrectOwner","inputs":[{"name":"sender","type":"address","internalType":"address"},{"name":"tokenId","type":"uint256","internalType":"uint256"},{"name":"owner","type":"address","internalType":"address"}]},{"type":"error","name":"ERC721InsufficientApproval","inputs":[{"name":"operator","type":"address","internalType":"address"},{"name":"tokenId","type":"uint256","internalType":"uint256"}]},{"type":"error","name":"ERC721InvalidApprover","inputs":[{"name":"approver","type":"address","internalType":"address"}]},{"type":"error","name":"ERC721InvalidOperator","inputs":[{"name":"operator","type":"address","internalType":"address"}]},{"type":"error","name":"ERC721InvalidOwner","inputs":[{"name":"owner","type":"address","internalType":"address"}]},{"type":"error","name":"ERC721InvalidReceiver","inputs":[{"name":"receiver","type":"address","internalType":"address"}]},{"type":"error","name":"ERC721InvalidSender","inputs":[{"name":"sender","type":"address","internalType":"address"}]},{"type":"error","name":"ERC721NonexistentToken","inputs":[{"name":"tokenId","type":"uint256","internalType":"uint256"}]},{"type":"error","name":"FailedInnerCall","inputs":[]},{"type":"error","name":"InvalidInitialization","inputs":[]},{"type":"error","name":"NotInitializing","inputs":[]},{"type":"error","name":"OwnableInvalidOwner","inputs":[{"name":"owner","type":"address","internalType":"address"}]},{"type":"error","name":"OwnableUnauthorizedAccount","inputs":[{"name":"account","type":"address","internalType":"address"}]},{"type":"error","name":"UUPSUnauthorizedCallContext","inputs":[]},{"type":"error","name":"UUPSUnsupportedProxiableUUID","inputs":[{"name":"slot","type":"bytes32","internalType":"bytes32"}]}],"bytecode":{"object":"0x60a06040523060805234801561001457600080fd5b50608051611feb61003e60003960008181610dfa01528181610e230152610fa10152611feb6000f3fe6080604052600436106101805760003560e01c806370a08231116100d6578063ad3cb1cc1161007f578063c87b56dd11610059578063c87b56dd14610452578063e985e9c514610472578063f2fde38b146104da57600080fd5b8063ad3cb1cc146103c9578063b88d4fde14610412578063c4d66de81461043257600080fd5b806395d89b41116100b057806395d89b4114610374578063a22cb46514610389578063a95393db146103a957600080fd5b806370a0823114610302578063715018a6146103225780638da5cb5b1461033757600080fd5b806323b872dd116101385780634f1ef286116101125780634f1ef286146102ba57806352d1902d146102cd5780636352211e146102e257600080fd5b806323b872dd1461025a57806340d097c31461027a57806342842e0e1461029a57600080fd5b8063081812fc11610169578063081812fc146101dc578063095ea7b31461021457806317d70f7c1461023657600080fd5b806301ffc9a71461018557806306fdde03146101ba575b600080fd5b34801561019157600080fd5b506101a56101a0366004611a78565b6104fa565b60405190151581526020015b60405180910390f35b3480156101c657600080fd5b506101cf610597565b6040516101b19190611ae5565b3480156101e857600080fd5b506101fc6101f7366004611af8565b61064d565b6040516001600160a01b0390911681526020016101b1565b34801561022057600080fd5b5061023461022f366004611b2d565b610695565b005b34801561024257600080fd5b5061024c60005481565b6040519081526020016101b1565b34801561026657600080fd5b50610234610275366004611b57565b6106a4565b34801561028657600080fd5b50610234610295366004611b93565b61074d565b3480156102a657600080fd5b506102346102b5366004611b57565b610778565b6102346102c8366004611c51565b610798565b3480156102d957600080fd5b5061024c6107b3565b3480156102ee57600080fd5b506101fc6102fd366004611af8565b6107e2565b34801561030e57600080fd5b5061024c61031d366004611b93565b6107ed565b34801561032e57600080fd5b50610234610874565b34801561034357600080fd5b507f9016d09d72d40fdae2fd8ceac6b6234c7706214fd39c1cd1e609a0528c199300546001600160a01b03166101fc565b34801561038057600080fd5b506101cf610888565b34801561039557600080fd5b506102346103a4366004611c9f565b6108d9565b3480156103b557600080fd5b506102346103c4366004611b93565b6108e4565b3480156103d557600080fd5b506101cf6040518060400160405280600581526020017f352e302e3000000000000000000000000000000000000000000000000000000081525081565b34801561041e57600080fd5b5061023461042d366004611cdb565b610911565b34801561043e57600080fd5b5061023461044d366004611b93565b610928565b34801561045e57600080fd5b506101cf61046d366004611af8565b610ae5565b34801561047e57600080fd5b506101a561048d366004611d43565b6001600160a01b0391821660009081527f80bb2b638cc20bc4d0a60d66940f3ab4a00c1d7b313497ca82fb0b4ab00793056020908152604080832093909416825291909152205460ff1690565b3480156104e657600080fd5b506102346104f5366004611b93565b610b5a565b60006001600160e01b031982167f80ac58cd00000000000000000000000000000000000000000000000000000000148061055d57506001600160e01b031982167f5b5e139f00000000000000000000000000000000000000000000000000000000145b8061059157507f01ffc9a7000000000000000000000000000000000000000000000000000000006001600160e01b03198316145b92915050565b7f80bb2b638cc20bc4d0a60d66940f3ab4a00c1d7b313497ca82fb0b4ab007930080546060919081906105c990611d76565b80601f01602080910402602001604051908101604052809291908181526020018280546105f590611d76565b80156106425780601f1061061757610100808354040283529160200191610642565b820191906000526020600020905b81548152906001019060200180831161062557829003601f168201915b505050505091505090565b600061065882610bae565b5060008281527f80bb2b638cc20bc4d0a60d66940f3ab4a00c1d7b313497ca82fb0b4ab007930460205260409020546001600160a01b0316610591565b6106a0828233610c06565b5050565b6001600160a01b0382166106d357604051633250574960e11b8152600060048201526024015b60405180910390fd5b60006106e0838333610c13565b9050836001600160a01b0316816001600160a01b031614610747576040517f64283d7b0000000000000000000000000000000000000000000000000000000081526001600160a01b03808616600483015260248201849052821660448201526064016106ca565b50505050565b610755610d61565b60008054908061076483611dc6565b919050555061077581600054610dd5565b50565b61079383838360405180602001604052806000815250610911565b505050565b6107a0610def565b6107a982610ea6565b6106a08282610eae565b60006107bd610f96565b507f360894a13ba1a3210667c828492db98dca3e2076cc3735a920a3ca505d382bbc90565b600061059182610bae565b60007f80bb2b638cc20bc4d0a60d66940f3ab4a00c1d7b313497ca82fb0b4ab00793006001600160a01b038316610853576040517f89c62b64000000000000000000000000000000000000000000000000000000008152600060048201526024016106ca565b6001600160a01b039092166000908152600390920160205250604090205490565b61087c610d61565b6108866000610fdf565b565b7f80bb2b638cc20bc4d0a60d66940f3ab4a00c1d7b313497ca82fb0b4ab007930180546060917f80bb2b638cc20bc4d0a60d66940f3ab4a00c1d7b313497ca82fb0b4ab0079300916105c990611d76565b6106a033838361105d565b6108ec610d61565b60026000808282546108fe9190611ddf565b9250508190555061077581600054610dd5565b61091c8484846106a4565b61074784848484611139565b7ff0c57e16840df040f15088dc2f81fe391c3923bec73e23a9662efc9c229c6a00805468010000000000000000810460ff16159067ffffffffffffffff166000811580156109735750825b905060008267ffffffffffffffff1660011480156109905750303b155b90508115801561099e575080155b156109d5576040517ff92ee8a900000000000000000000000000000000000000000000000000000000815260040160405180910390fd5b845467ffffffffffffffff191660011785558315610a0957845468ff00000000000000001916680100000000000000001785555b610a7d6040518060400160405280600581526020017f4d794e46540000000000000000000000000000000000000000000000000000008152506040518060400160405280600481526020017f4d4e465400000000000000000000000000000000000000000000000000000000815250611262565b610a8686611274565b610a8e611285565b600080558315610add57845468ff000000000000000019168555604051600181527fc7f505b2f371ae2175ee4913f4499e1f2633a7b5936321eed1cdaeb6115181d29060200160405180910390a15b505050505050565b6060610af082610bae565b506000610b0860408051602081019091526000815290565b90506000815111610b285760405180602001604052806000815250610b53565b80610b328461128d565b604051602001610b43929190611df2565b6040516020818303038152906040525b9392505050565b610b62610d61565b6001600160a01b038116610ba5576040517f1e4fbdf7000000000000000000000000000000000000000000000000000000008152600060048201526024016106ca565b61077581610fdf565b60008181527f80bb2b638cc20bc4d0a60d66940f3ab4a00c1d7b313497ca82fb0b4ab007930260205260408120546001600160a01b03168061059157604051637e27328960e01b8152600481018490526024016106ca565b610793838383600161132d565b60008281527f80bb2b638cc20bc4d0a60d66940f3ab4a00c1d7b313497ca82fb0b4ab007930260205260408120547f80bb2b638cc20bc4d0a60d66940f3ab4a00c1d7b313497ca82fb0b4ab0079300906001600160a01b0390811690841615610c8157610c818185876114b9565b6001600160a01b03811615610cc157610c9e60008660008061132d565b6001600160a01b0381166000908152600383016020526040902080546000190190555b6001600160a01b03861615610cf2576001600160a01b03861660009081526003830160205260409020805460010190555b6000858152600283016020526040808220805473ffffffffffffffffffffffffffffffffffffffff19166001600160a01b038a811691821790925591518893918516917fddf252ad1be2c89b69c2b068fc378daa952ba7f163c4a11628f55a4df523b3ef91a495945050505050565b33610d937f9016d09d72d40fdae2fd8ceac6b6234c7706214fd39c1cd1e609a0528c199300546001600160a01b031690565b6001600160a01b031614610886576040517f118cdaa70000000000000000000000000000000000000000000000000000000081523360048201526024016106ca565b6106a0828260405180602001604052806000815250611536565b306001600160a01b037f0000000000000000000000000000000000000000000000000000000000000000161480610e8857507f00000000000000000000000000000000000000000000000000000000000000006001600160a01b0316610e7c7f360894a13ba1a3210667c828492db98dca3e2076cc3735a920a3ca505d382bbc546001600160a01b031690565b6001600160a01b031614155b156108865760405163703e46dd60e11b815260040160405180910390fd5b610775610d61565b816001600160a01b03166352d1902d6040518163ffffffff1660e01b8152600401602060405180830381865afa925050508015610f08575060408051601f3d908101601f19168201909252610f0591810190611e21565b60015b610f3057604051634c9c8ce360e01b81526001600160a01b03831660048201526024016106ca565b7f360894a13ba1a3210667c828492db98dca3e2076cc3735a920a3ca505d382bbc8114610f8c576040517faa1d49a4000000000000000000000000000000000000000000000000000000008152600481018290526024016106ca565b610793838361154d565b306001600160a01b037f000000000000000000000000000000000000000000000000000000000000000016146108865760405163703e46dd60e11b815260040160405180910390fd5b7f9016d09d72d40fdae2fd8ceac6b6234c7706214fd39c1cd1e609a0528c199300805473ffffffffffffffffffffffffffffffffffffffff1981166001600160a01b03848116918217845560405192169182907f8be0079c531659141344cd1fd0a4f28419497f9722a3daafe3b4186f6b6457e090600090a3505050565b7f80bb2b638cc20bc4d0a60d66940f3ab4a00c1d7b313497ca82fb0b4ab00793006001600160a01b0383166110c9576040517f5b08ba180000000000000000000000000000000000000000000000000000000081526001600160a01b03841660048201526024016106ca565b6001600160a01b038481166000818152600584016020908152604080832094881680845294825291829020805460ff191687151590811790915591519182527f17307eab39ab6107e8899845ad3d59bd9653f200f220920489ca2b5937696c31910160405180910390a350505050565b6001600160a01b0383163b1561074757604051630a85bd0160e11b81526001600160a01b0384169063150b7a029061117b903390889087908790600401611e3a565b6020604051808303816000875af19250505080156111b6575060408051601f3d908101601f191682019092526111b391810190611e76565b60015b61121f573d8080156111e4576040519150601f19603f3d011682016040523d82523d6000602084013e6111e9565b606091505b50805160000361121757604051633250574960e11b81526001600160a01b03851660048201526024016106ca565b805181602001fd5b6001600160e01b03198116630a85bd0160e11b1461125b57604051633250574960e11b81526001600160a01b03851660048201526024016106ca565b5050505050565b61126a6115a3565b6106a0828261160a565b61127c6115a3565b6107758161164d565b6108866115a3565b6060600061129a83611655565b600101905060008167ffffffffffffffff8111156112ba576112ba611bae565b6040519080825280601f01601f1916602001820160405280156112e4576020820181803683370190505b5090508181016020015b600019017f3031323334353637383961626364656600000000000000000000000000000000600a86061a8153600a85049450846112ee57509392505050565b7f80bb2b638cc20bc4d0a60d66940f3ab4a00c1d7b313497ca82fb0b4ab0079300818061136257506001600160a01b03831615155b1561147b57600061137285610bae565b90506001600160a01b0384161580159061139e5750836001600160a01b0316816001600160a01b031614155b80156113ef57506001600160a01b0380821660009081527f80bb2b638cc20bc4d0a60d66940f3ab4a00c1d7b313497ca82fb0b4ab0079305602090815260408083209388168352929052205460ff16155b15611431576040517fa9fbf51f0000000000000000000000000000000000000000000000000000000081526001600160a01b03851660048201526024016106ca565b82156114795784866001600160a01b0316826001600160a01b03167f8c5be1e5ebec7d5bd14f71427d1e84f3dd0314c0f7b2291e5b200ac8c7c3b92560405160405180910390a45b505b6000938452600401602052505060409020805473ffffffffffffffffffffffffffffffffffffffff19166001600160a01b0392909216919091179055565b6114c4838383611737565b610793576001600160a01b0383166114f257604051637e27328960e01b8152600481018290526024016106ca565b6040517f177e802f0000000000000000000000000000000000000000000000000000000081526001600160a01b0383166004820152602481018290526044016106ca565b61154083836117fb565b6107936000848484611139565b61155682611879565b6040516001600160a01b038316907fbc7cd75a20ee27fd9adebab32041f755214dbc6bffa90cc0225b39da2e5c2d3b90600090a280511561159b5761079382826118fd565b6106a0611973565b7ff0c57e16840df040f15088dc2f81fe391c3923bec73e23a9662efc9c229c6a005468010000000000000000900460ff16610886576040517fd7e6bcf800000000000000000000000000000000000000000000000000000000815260040160405180910390fd5b6116126115a3565b7f80bb2b638cc20bc4d0a60d66940f3ab4a00c1d7b313497ca82fb0b4ab00793008061163e8482611ed9565b50600181016107478382611ed9565b610b626115a3565b6000807a184f03e93ff9f4daa797ed6e38ed64bf6a1f010000000000000000831061169e577a184f03e93ff9f4daa797ed6e38ed64bf6a1f010000000000000000830492506040015b6d04ee2d6d415b85acef810000000083106116ca576d04ee2d6d415b85acef8100000000830492506020015b662386f26fc1000083106116e857662386f26fc10000830492506010015b6305f5e1008310611700576305f5e100830492506008015b612710831061171457612710830492506004015b60648310611726576064830492506002015b600a83106105915760010192915050565b60006001600160a01b038316158015906117f35750826001600160a01b0316846001600160a01b031614806117b057506001600160a01b0380851660009081527f80bb2b638cc20bc4d0a60d66940f3ab4a00c1d7b313497ca82fb0b4ab0079305602090815260408083209387168352929052205460ff165b806117f3575060008281527f80bb2b638cc20bc4d0a60d66940f3ab4a00c1d7b313497ca82fb0b4ab007930460205260409020546001600160a01b038481169116145b949350505050565b6001600160a01b03821661182557604051633250574960e11b8152600060048201526024016106ca565b600061183383836000610c13565b90506001600160a01b03811615610793576040517f73c6ac6e000000000000000000000000000000000000000000000000000000008152600060048201526024016106ca565b806001600160a01b03163b6000036118af57604051634c9c8ce360e01b81526001600160a01b03821660048201526024016106ca565b7f360894a13ba1a3210667c828492db98dca3e2076cc3735a920a3ca505d382bbc805473ffffffffffffffffffffffffffffffffffffffff19166001600160a01b0392909216919091179055565b6060600080846001600160a01b03168460405161191a9190611f99565b600060405180830381855af49150503d8060008114611955576040519150601f19603f3d011682016040523d82523d6000602084013e61195a565b606091505b509150915061196a8583836119ab565b95945050505050565b3415610886576040517fb398979f00000000000000000000000000000000000000000000000000000000815260040160405180910390fd5b6060826119c0576119bb82611a20565b610b53565b81511580156119d757506001600160a01b0384163b155b15611a19576040517f9996b3150000000000000000000000000000000000000000000000000000000081526001600160a01b03851660048201526024016106ca565b5080610b53565b805115611a305780518082602001fd5b6040517f1425ea4200000000000000000000000000000000000000000000000000000000815260040160405180910390fd5b6001600160e01b03198116811461077557600080fd5b600060208284031215611a8a57600080fd5b8135610b5381611a62565b60005b83811015611ab0578181015183820152602001611a98565b50506000910152565b60008151808452611ad1816020860160208601611a95565b601f01601f19169290920160200192915050565b602081526000610b536020830184611ab9565b600060208284031215611b0a57600080fd5b5035919050565b80356001600160a01b0381168114611b2857600080fd5b919050565b60008060408385031215611b4057600080fd5b611b4983611b11565b946020939093013593505050565b600080600060608486031215611b6c57600080fd5b611b7584611b11565b9250611b8360208501611b11565b9150604084013590509250925092565b600060208284031215611ba557600080fd5b610b5382611b11565b634e487b7160e01b600052604160045260246000fd5b600082601f830112611bd557600080fd5b813567ffffffffffffffff80821115611bf057611bf0611bae565b604051601f8301601f19908116603f01168101908282118183101715611c1857611c18611bae565b81604052838152866020858801011115611c3157600080fd5b836020870160208301376000602085830101528094505050505092915050565b60008060408385031215611c6457600080fd5b611c6d83611b11565b9150602083013567ffffffffffffffff811115611c8957600080fd5b611c9585828601611bc4565b9150509250929050565b60008060408385031215611cb257600080fd5b611cbb83611b11565b915060208301358015158114611cd057600080fd5b809150509250929050565b60008060008060808587031215611cf157600080fd5b611cfa85611b11565b9350611d0860208601611b11565b925060408501359150606085013567ffffffffffffffff811115611d2b57600080fd5b611d3787828801611bc4565b91505092959194509250565b60008060408385031215611d5657600080fd5b611d5f83611b11565b9150611d6d60208401611b11565b90509250929050565b600181811c90821680611d8a57607f821691505b602082108103611daa57634e487b7160e01b600052602260045260246000fd5b50919050565b634e487b7160e01b600052601160045260246000fd5b600060018201611dd857611dd8611db0565b5060010190565b8082018082111561059157610591611db0565b60008351611e04818460208801611a95565b835190830190611e18818360208801611a95565b01949350505050565b600060208284031215611e3357600080fd5b5051919050565b60006001600160a01b03808716835280861660208401525083604083015260806060830152611e6c6080830184611ab9565b9695505050505050565b600060208284031215611e8857600080fd5b8151610b5381611a62565b601f82111561079357600081815260208120601f850160051c81016020861015611eba5750805b601f850160051c820191505b81811015610add57828155600101611ec6565b815167ffffffffffffffff811115611ef357611ef3611bae565b611f0781611f018454611d76565b84611e93565b602080601f831160018114611f3c5760008415611f245750858301515b600019600386901b1c1916600185901b178555610add565b600085815260208120601f198616915b82811015611f6b57888601518255948401946001909101908401611f4c565b5085821015611f895787850151600019600388901b60f8161c191681555b5050505050600190811b01905550565b60008251611fab818460208701611a95565b919091019291505056fea2646970667358221220ee686ea661fe4ce07c32d1e92d856d62f2640764845c207546abe035ed737f1664736f6c63430008140033","linkReferences":{}},"methodIdentifiers":{"UPGRADE_INTERFACE_VERSION()":"ad3cb1cc","approve(address,uint256)":"095ea7b3","balanceOf(address)":"70a08231","getApproved(uint256)":"081812fc","initialize(address)":"c4d66de8","isApprovedForAll(address,address)":"e985e9c5","name()":"06fdde03","owner()":"8da5cb5b","ownerOf(uint256)":"6352211e","proxiableUUID()":"52d1902d","renounceOwnership()":"715018a6","safeMint(address)":"40d097c3","safeMintV2(address)":"a95393db","safeTransferFrom(address,address,uint256)":"42842e0e","safeTransferFrom(address,address,uint256,bytes)":"b88d4fde","setApprovalForAll(address,bool)":"a22cb465","supportsInterface(bytes4)":"01ffc9a7","symbol()":"95d89b41","tokenId()":"17d70f7c","tokenURI(uint256)":"c87b56dd","transferFrom(address,address,uint256)":"23b872dd","transferOwnership(address)":"f2fde38b","upgradeToAndCall(address,bytes)":"4f1ef286"},"storageLayout":{"storage":[{"astId":54911,"contract":"src/MyNFTV2.sol:MyNFTV2","label":"tokenId","offset":0,"slot":"0","type":"t_uint256"}],"types":{"t_uint256":{"encoding":"inplace","label":"uint256","numberOfBytes":"32"}}},"id":59}