{"abi":[{"type":"function","name":"UPGRADE_INTERFACE_VERSION","inputs":[],"outputs":[{"name":"","type":"string","internalType":"string"}],"stateMutability":"view"},{"type":"function","name":"approve","inputs":[{"name":"to","type":"address","internalType":"address"},{"name":"tokenId","type":"uint256","internalType":"uint256"}],"outputs":[],"stateMutability":"nonpayable"},{"type":"function","name":"balanceOf","inputs":[{"name":"owner","type":"address","internalType":"address"}],"outputs":[{"name":"","type":"uint256","internalType":"uint256"}],"stateMutability":"view"},{"type":"function","name":"getApproved","inputs":[{"name":"tokenId","type":"uint256","internalType":"uint256"}],"outputs":[{"name":"","type":"address","internalType":"address"}],"stateMutability":"view"},{"type":"function","name":"initialize","inputs":[{"name":"fnOwner","type":"address","internalType":"address"}],"outputs":[],"stateMutability":"nonpayable"},{"type":"function","name":"isApprovedForAll","inputs":[{"name":"owner","type":"address","internalType":"address"},{"name":"operator","type":"address","internalType":"address"}],"outputs":[{"name":"","type":"bool","internalType":"bool"}],"stateMutability":"view"},{"type":"function","name":"name","inputs":[],"outputs":[{"name":"","type":"string","internalType":"string"}],"stateMutability":"view"},{"type":"function","name":"owner","inputs":[],"outputs":[{"name":"","type":"address","internalType":"address"}],"stateMutability":"view"},{"type":"function","name":"ownerOf","inputs":[{"name":"tokenId","type":"uint256","internalType":"uint256"}],"outputs":[{"name":"","type":"address","internalType":"address"}],"stateMutability":"view"},{"type":"function","name":"proxiableUUID","inputs":[],"outputs":[{"name":"","type":"bytes32","internalType":"bytes32"}],"stateMutability":"view"},{"type":"function","name":"renounceOwnership","inputs":[],"outputs":[],"stateMutability":"nonpayable"},{"type":"function","name":"safeMint","inputs":[{"name":"to","type":"address","internalType":"address"}],"outputs":[],"stateMutability":"nonpayable"},{"type":"function","name":"safeTransferFrom","inputs":[{"name":"from","type":"address","internalType":"address"},{"name":"to","type":"address","internalType":"address"},{"name":"tokenId","type":"uint256","internalType":"uint256"}],"outputs":[],"stateMutability":"nonpayable"},{"type":"function","name":"safeTransferFrom","inputs":[{"name":"from","type":"address","internalType":"address"},{"name":"to","type":"address","internalType":"address"},{"name":"tokenId","type":"uint256","internalType":"uint256"},{"name":"data","type":"bytes","internalType":"bytes"}],"outputs":[],"stateMutability":"nonpayable"},{"type":"function","name":"setApprovalForAll","inputs":[{"name":"operator","type":"address","internalType":"address"},{"name":"approved","type":"bool","internalType":"bool"}],"outputs":[],"stateMutability":"nonpayable"},{"type":"function","name":"supportsInterface","inputs":[{"name":"interfaceId","type":"bytes4","internalType":"bytes4"}],"outputs":[{"name":"","type":"bool","internalType":"bool"}],"stateMutability":"view"},{"type":"function","name":"symbol","inputs":[],"outputs":[{"name":"","type":"string","internalType":"string"}],"stateMutability":"view"},{"type":"function","name":"tokenId","inputs":[],"outputs":[{"name":"","type":"uint256","internalType":"uint256"}],"stateMutability":"view"},{"type":"function","name":"tokenURI","inputs":[{"name":"tokenId","type":"uint256","internalType":"uint256"}],"outputs":[{"name":"","type":"string","internalType":"string"}],"stateMutability":"view"},{"type":"function","name":"transferFrom","inputs":[{"name":"from","type":"address","internalType":"address"},{"name":"to","type":"address","internalType":"address"},{"name":"tokenId","type":"uint256","internalType":"uint256"}],"outputs":[],"stateMutability":"nonpayable"},{"type":"function","name":"transferOwnership","inputs":[{"name":"newOwner","type":"address","internalType":"address"}],"outputs":[],"stateMutability":"nonpayable"},{"type":"function","name":"upgradeToAndCall","inputs":[{"name":"newImplementation","type":"address","internalType":"address"},{"name":"data","type":"bytes","internalType":"bytes"}],"outputs":[],"stateMutability":"payable"},{"type":"event","name":"Approval","inputs":[{"name":"owner","type":"address","indexed":true,"internalType":"address"},{"name":"approved","type":"address","indexed":true,"internalType":"address"},{"name":"tokenId","type":"uint256","indexed":true,"internalType":"uint256"}],"anonymous":false},{"type":"event","name":"ApprovalForAll","inputs":[{"name":"owner","type":"address","indexed":true,"internalType":"address"},{"name":"operator","type":"address","indexed":true,"internalType":"address"},{"name":"approved","type":"bool","indexed":false,"internalType":"bool"}],"anonymous":false},{"type":"event","name":"Initialized","inputs":[{"name":"version","type":"uint64","indexed":false,"internalType":"uint64"}],"anonymous":false},{"type":"event","name":"OwnershipTransferred","inputs":[{"name":"previousOwner","type":"address","indexed":true,"internalType":"address"},{"name":"newOwner","type":"address","indexed":true,"internalType":"address"}],"anonymous":false},{"type":"event","name":"Transfer","inputs":[{"name":"from","type":"address","indexed":true,"internalType":"address"},{"name":"to","type":"address","indexed":true,"internalType":"address"},{"name":"tokenId","type":"uint256","indexed":true,"internalType":"uint256"}],"anonymous":false},{"type":"event","name":"Upgraded","inputs":[{"name":"implementation","type":"address","indexed":true,"internalType":"address"}],"anonymous":false},{"type":"error","name":"AddressEmptyCode","inputs":[{"name":"target","type":"address","internalType":"address"}]},{"type":"error","name":"ERC1967InvalidImplementation","inputs":[{"name":"implementation","type":"address","internalType":"address"}]},{"type":"error","name":"ERC1967NonPayable","inputs":[]},{"type":"error","name":"ERC721IncorrectOwner","inputs":[{"name":"sender","type":"address","internalType":"address"},{"name":"tokenId","type":"uint256","internalType":"uint256"},{"name":"owner","type":"address","internalType":"address"}]},{"type":"error","name":"ERC721InsufficientApproval","inputs":[{"name":"operator","type":"address","internalType":"address"},{"name":"tokenId","type":"uint256","internalType":"uint256"}]},{"type":"error","name":"ERC721InvalidApprover","inputs":[{"name":"approver","type":"address","internalType":"address"}]},{"type":"error","name":"ERC721InvalidOperator","inputs":[{"name":"operator","type":"address","internalType":"address"}]},{"type":"error","name":"ERC721InvalidOwner","inputs":[{"name":"owner","type":"address","internalType":"address"}]},{"type":"error","name":"ERC721InvalidReceiver","inputs":[{"name":"receiver","type":"address","internalType":"address"}]},{"type":"error","name":"ERC721InvalidSender","inputs":[{"name":"sender","type":"address","internalType":"address"}]},{"type":"error","name":"ERC721NonexistentToken","inputs":[{"name":"tokenId","type":"uint256","internalType":"uint256"}]},{"type":"error","name":"FailedInnerCall","inputs":[]},{"type":"error","name":"InvalidInitialization","inputs":[]},{"type":"error","name":"NotInitializing","inputs":[]},{"type":"error","name":"OwnableInvalidOwner","inputs":[{"name":"owner","type":"address","internalType":"address"}]},{"type":"error","name":"OwnableUnauthorizedAccount","inputs":[{"name":"account","type":"address","internalType":"address"}]},{"type":"error","name":"UUPSUnauthorizedCallContext","inputs":[]},{"type":"error","name":"UUPSUnsupportedProxiableUUID","inputs":[{"name":"slot","type":"bytes32","internalType":"bytes32"}]}],"bytecode":{"object":"0x60a06040523060805234801561001457600080fd5b50608051611f7861003e60003960008181610da201528181610dcb0152610f490152611f786000f3fe6080604052600436106101755760003560e01c806370a08231116100cb578063ad3cb1cc1161007f578063c87b56dd11610059578063c87b56dd14610427578063e985e9c514610447578063f2fde38b146104af57600080fd5b8063ad3cb1cc1461039e578063b88d4fde146103e7578063c4d66de81461040757600080fd5b80638da5cb5b116100b05780638da5cb5b1461032c57806395d89b4114610369578063a22cb4651461037e57600080fd5b806370a08231146102f7578063715018a61461031757600080fd5b806323b872dd1161012d5780634f1ef286116101075780634f1ef286146102af57806352d1902d146102c25780636352211e146102d757600080fd5b806323b872dd1461024f57806340d097c31461026f57806342842e0e1461028f57600080fd5b8063081812fc1161015e578063081812fc146101d1578063095ea7b31461020957806317d70f7c1461022b57600080fd5b806301ffc9a71461017a57806306fdde03146101af575b600080fd5b34801561018657600080fd5b5061019a610195366004611a20565b6104cf565b60405190151581526020015b60405180910390f35b3480156101bb57600080fd5b506101c461056c565b6040516101a69190611a8d565b3480156101dd57600080fd5b506101f16101ec366004611aa0565b610622565b6040516001600160a01b0390911681526020016101a6565b34801561021557600080fd5b50610229610224366004611ad5565b61066a565b005b34801561023757600080fd5b5061024160005481565b6040519081526020016101a6565b34801561025b57600080fd5b5061022961026a366004611aff565b610679565b34801561027b57600080fd5b5061022961028a366004611b3b565b610722565b34801561029b57600080fd5b506102296102aa366004611aff565b61074d565b6102296102bd366004611bf9565b61076d565b3480156102ce57600080fd5b50610241610788565b3480156102e357600080fd5b506101f16102f2366004611aa0565b6107b7565b34801561030357600080fd5b50610241610312366004611b3b565b6107c2565b34801561032357600080fd5b50610229610849565b34801561033857600080fd5b507f9016d09d72d40fdae2fd8ceac6b6234c7706214fd39c1cd1e609a0528c199300546001600160a01b03166101f1565b34801561037557600080fd5b506101c461085d565b34801561038a57600080fd5b50610229610399366004611c47565b6108ae565b3480156103aa57600080fd5b506101c46040518060400160405280600581526020017f352e302e3000000000000000000000000000000000000000000000000000000081525081565b3480156103f357600080fd5b50610229610402366004611c83565b6108b9565b34801561041357600080fd5b50610229610422366004611b3b565b6108d0565b34801561043357600080fd5b506101c4610442366004611aa0565b610a8d565b34801561045357600080fd5b5061019a610462366004611ceb565b6001600160a01b0391821660009081527f80bb2b638cc20bc4d0a60d66940f3ab4a00c1d7b313497ca82fb0b4ab00793056020908152604080832093909416825291909152205460ff1690565b3480156104bb57600080fd5b506102296104ca366004611b3b565b610b02565b60006001600160e01b031982167f80ac58cd00000000000000000000000000000000000000000000000000000000148061053257506001600160e01b031982167f5b5e139f00000000000000000000000000000000000000000000000000000000145b8061056657507f01ffc9a7000000000000000000000000000000000000000000000000000000006001600160e01b03198316145b92915050565b7f80bb2b638cc20bc4d0a60d66940f3ab4a00c1d7b313497ca82fb0b4ab0079300805460609190819061059e90611d1e565b80601f01602080910402602001604051908101604052809291908181526020018280546105ca90611d1e565b80156106175780601f106105ec57610100808354040283529160200191610617565b820191906000526020600020905b8154815290600101906020018083116105fa57829003601f168201915b505050505091505090565b600061062d82610b56565b5060008281527f80bb2b638cc20bc4d0a60d66940f3ab4a00c1d7b313497ca82fb0b4ab007930460205260409020546001600160a01b0316610566565b610675828233610bae565b5050565b6001600160a01b0382166106a857604051633250574960e11b8152600060048201526024015b60405180910390fd5b60006106b5838333610bbb565b9050836001600160a01b0316816001600160a01b03161461071c576040517f64283d7b0000000000000000000000000000000000000000000000000000000081526001600160a01b038086166004830152602482018490528216604482015260640161069f565b50505050565b61072a610d09565b60008054908061073983611d58565b919050555061074a81600054610d7d565b50565b610768838383604051806020016040528060008152506108b9565b505050565b610775610d97565b61077e82610e4e565b6106758282610e56565b6000610792610f3e565b507f360894a13ba1a3210667c828492db98dca3e2076cc3735a920a3ca505d382bbc90565b600061056682610b56565b60007f80bb2b638cc20bc4d0a60d66940f3ab4a00c1d7b313497ca82fb0b4ab00793006001600160a01b038316610828576040517f89c62b640000000000000000000000000000000000000000000000000000000081526000600482015260240161069f565b6001600160a01b039092166000908152600390920160205250604090205490565b610851610d09565b61085b6000610f87565b565b7f80bb2b638cc20bc4d0a60d66940f3ab4a00c1d7b313497ca82fb0b4ab007930180546060917f80bb2b638cc20bc4d0a60d66940f3ab4a00c1d7b313497ca82fb0b4ab00793009161059e90611d1e565b610675338383611005565b6108c4848484610679565b61071c848484846110e1565b7ff0c57e16840df040f15088dc2f81fe391c3923bec73e23a9662efc9c229c6a00805468010000000000000000810460ff16159067ffffffffffffffff1660008115801561091b5750825b905060008267ffffffffffffffff1660011480156109385750303b155b905081158015610946575080155b1561097d576040517ff92ee8a900000000000000000000000000000000000000000000000000000000815260040160405180910390fd5b845467ffffffffffffffff1916600117855583156109b157845468ff00000000000000001916680100000000000000001785555b610a256040518060400160405280600581526020017f4d794e46540000000000000000000000000000000000000000000000000000008152506040518060400160405280600481526020017f4d4e46540000000000000000000000000000000000000000000000000000000081525061120a565b610a2e8661121c565b610a3661122d565b600080558315610a8557845468ff000000000000000019168555604051600181527fc7f505b2f371ae2175ee4913f4499e1f2633a7b5936321eed1cdaeb6115181d29060200160405180910390a15b505050505050565b6060610a9882610b56565b506000610ab060408051602081019091526000815290565b90506000815111610ad05760405180602001604052806000815250610afb565b80610ada84611235565b604051602001610aeb929190611d7f565b6040516020818303038152906040525b9392505050565b610b0a610d09565b6001600160a01b038116610b4d576040517f1e4fbdf70000000000000000000000000000000000000000000000000000000081526000600482015260240161069f565b61074a81610f87565b60008181527f80bb2b638cc20bc4d0a60d66940f3ab4a00c1d7b313497ca82fb0b4ab007930260205260408120546001600160a01b03168061056657604051637e27328960e01b81526004810184905260240161069f565b61076883838360016112d5565b60008281527f80bb2b638cc20bc4d0a60d66940f3ab4a00c1d7b313497ca82fb0b4ab007930260205260408120547f80bb2b638cc20bc4d0a60d66940f3ab4a00c1d7b313497ca82fb0b4ab0079300906001600160a01b0390811690841615610c2957610c29818587611461565b6001600160a01b03811615610c6957610c466000866000806112d5565b6001600160a01b0381166000908152600383016020526040902080546000190190555b6001600160a01b03861615610c9a576001600160a01b03861660009081526003830160205260409020805460010190555b6000858152600283016020526040808220805473ffffffffffffffffffffffffffffffffffffffff19166001600160a01b038a811691821790925591518893918516917fddf252ad1be2c89b69c2b068fc378daa952ba7f163c4a11628f55a4df523b3ef91a495945050505050565b33610d3b7f9016d09d72d40fdae2fd8ceac6b6234c7706214fd39c1cd1e609a0528c199300546001600160a01b031690565b6001600160a01b03161461085b576040517f118cdaa700000000000000000000000000000000000000000000000000000000815233600482015260240161069f565b6106758282604051806020016040528060008152506114de565b306001600160a01b037f0000000000000000000000000000000000000000000000000000000000000000161480610e3057507f00000000000000000000000000000000000000000000000000000000000000006001600160a01b0316610e247f360894a13ba1a3210667c828492db98dca3e2076cc3735a920a3ca505d382bbc546001600160a01b031690565b6001600160a01b031614155b1561085b5760405163703e46dd60e11b815260040160405180910390fd5b61074a610d09565b816001600160a01b03166352d1902d6040518163ffffffff1660e01b8152600401602060405180830381865afa925050508015610eb0575060408051601f3d908101601f19168201909252610ead91810190611dae565b60015b610ed857604051634c9c8ce360e01b81526001600160a01b038316600482015260240161069f565b7f360894a13ba1a3210667c828492db98dca3e2076cc3735a920a3ca505d382bbc8114610f34576040517faa1d49a40000000000000000000000000000000000000000000000000000000081526004810182905260240161069f565b61076883836114f5565b306001600160a01b037f0000000000000000000000000000000000000000000000000000000000000000161461085b5760405163703e46dd60e11b815260040160405180910390fd5b7f9016d09d72d40fdae2fd8ceac6b6234c7706214fd39c1cd1e609a0528c199300805473ffffffffffffffffffffffffffffffffffffffff1981166001600160a01b03848116918217845560405192169182907f8be0079c531659141344cd1fd0a4f28419497f9722a3daafe3b4186f6b6457e090600090a3505050565b7f80bb2b638cc20bc4d0a60d66940f3ab4a00c1d7b313497ca82fb0b4ab00793006001600160a01b038316611071576040517f5b08ba180000000000000000000000000000000000000000000000000000000081526001600160a01b038416600482015260240161069f565b6001600160a01b038481166000818152600584016020908152604080832094881680845294825291829020805460ff191687151590811790915591519182527f17307eab39ab6107e8899845ad3d59bd9653f200f220920489ca2b5937696c31910160405180910390a350505050565b6001600160a01b0383163b1561071c57604051630a85bd0160e11b81526001600160a01b0384169063150b7a0290611123903390889087908790600401611dc7565b6020604051808303816000875af192505050801561115e575060408051601f3d908101601f1916820190925261115b91810190611e03565b60015b6111c7573d80801561118c576040519150601f19603f3d011682016040523d82523d6000602084013e611191565b606091505b5080516000036111bf57604051633250574960e11b81526001600160a01b038516600482015260240161069f565b805181602001fd5b6001600160e01b03198116630a85bd0160e11b1461120357604051633250574960e11b81526001600160a01b038516600482015260240161069f565b5050505050565b61121261154b565b61067582826115b2565b61122461154b565b61074a816115f5565b61085b61154b565b60606000611242836115fd565b600101905060008167ffffffffffffffff81111561126257611262611b56565b6040519080825280601f01601f19166020018201604052801561128c576020820181803683370190505b5090508181016020015b600019017f3031323334353637383961626364656600000000000000000000000000000000600a86061a8153600a850494508461129657509392505050565b7f80bb2b638cc20bc4d0a60d66940f3ab4a00c1d7b313497ca82fb0b4ab0079300818061130a57506001600160a01b03831615155b1561142357600061131a85610b56565b90506001600160a01b038416158015906113465750836001600160a01b0316816001600160a01b031614155b801561139757506001600160a01b0380821660009081527f80bb2b638cc20bc4d0a60d66940f3ab4a00c1d7b313497ca82fb0b4ab0079305602090815260408083209388168352929052205460ff16155b156113d9576040517fa9fbf51f0000000000000000000000000000000000000000000000000000000081526001600160a01b038516600482015260240161069f565b82156114215784866001600160a01b0316826001600160a01b03167f8c5be1e5ebec7d5bd14f71427d1e84f3dd0314c0f7b2291e5b200ac8c7c3b92560405160405180910390a45b505b6000938452600401602052505060409020805473ffffffffffffffffffffffffffffffffffffffff19166001600160a01b0392909216919091179055565b61146c8383836116df565b610768576001600160a01b03831661149a57604051637e27328960e01b81526004810182905260240161069f565b6040517f177e802f0000000000000000000000000000000000000000000000000000000081526001600160a01b03831660048201526024810182905260440161069f565b6114e883836117a3565b61076860008484846110e1565b6114fe82611821565b6040516001600160a01b038316907fbc7cd75a20ee27fd9adebab32041f755214dbc6bffa90cc0225b39da2e5c2d3b90600090a28051156115435761076882826118a5565b61067561191b565b7ff0c57e16840df040f15088dc2f81fe391c3923bec73e23a9662efc9c229c6a005468010000000000000000900460ff1661085b576040517fd7e6bcf800000000000000000000000000000000000000000000000000000000815260040160405180910390fd5b6115ba61154b565b7f80bb2b638cc20bc4d0a60d66940f3ab4a00c1d7b313497ca82fb0b4ab0079300806115e68482611e66565b506001810161071c8382611e66565b610b0a61154b565b6000807a184f03e93ff9f4daa797ed6e38ed64bf6a1f0100000000000000008310611646577a184f03e93ff9f4daa797ed6e38ed64bf6a1f010000000000000000830492506040015b6d04ee2d6d415b85acef81000000008310611672576d04ee2d6d415b85acef8100000000830492506020015b662386f26fc10000831061169057662386f26fc10000830492506010015b6305f5e10083106116a8576305f5e100830492506008015b61271083106116bc57612710830492506004015b606483106116ce576064830492506002015b600a83106105665760010192915050565b60006001600160a01b0383161580159061179b5750826001600160a01b0316846001600160a01b0316148061175857506001600160a01b0380851660009081527f80bb2b638cc20bc4d0a60d66940f3ab4a00c1d7b313497ca82fb0b4ab0079305602090815260408083209387168352929052205460ff165b8061179b575060008281527f80bb2b638cc20bc4d0a60d66940f3ab4a00c1d7b313497ca82fb0b4ab007930460205260409020546001600160a01b038481169116145b949350505050565b6001600160a01b0382166117cd57604051633250574960e11b81526000600482015260240161069f565b60006117db83836000610bbb565b90506001600160a01b03811615610768576040517f73c6ac6e0000000000000000000000000000000000000000000000000000000081526000600482015260240161069f565b806001600160a01b03163b60000361185757604051634c9c8ce360e01b81526001600160a01b038216600482015260240161069f565b7f360894a13ba1a3210667c828492db98dca3e2076cc3735a920a3ca505d382bbc805473ffffffffffffffffffffffffffffffffffffffff19166001600160a01b0392909216919091179055565b6060600080846001600160a01b0316846040516118c29190611f26565b600060405180830381855af49150503d80600081146118fd576040519150601f19603f3d011682016040523d82523d6000602084013e611902565b606091505b5091509150611912858383611953565b95945050505050565b341561085b576040517fb398979f00000000000000000000000000000000000000000000000000000000815260040160405180910390fd5b60608261196857611963826119c8565b610afb565b815115801561197f57506001600160a01b0384163b155b156119c1576040517f9996b3150000000000000000000000000000000000000000000000000000000081526001600160a01b038516600482015260240161069f565b5080610afb565b8051156119d85780518082602001fd5b6040517f1425ea4200000000000000000000000000000000000000000000000000000000815260040160405180910390fd5b6001600160e01b03198116811461074a57600080fd5b600060208284031215611a3257600080fd5b8135610afb81611a0a565b60005b83811015611a58578181015183820152602001611a40565b50506000910152565b60008151808452611a79816020860160208601611a3d565b601f01601f19169290920160200192915050565b602081526000610afb6020830184611a61565b600060208284031215611ab257600080fd5b5035919050565b80356001600160a01b0381168114611ad057600080fd5b919050565b60008060408385031215611ae857600080fd5b611af183611ab9565b946020939093013593505050565b600080600060608486031215611b1457600080fd5b611b1d84611ab9565b9250611b2b60208501611ab9565b9150604084013590509250925092565b600060208284031215611b4d57600080fd5b610afb82611ab9565b634e487b7160e01b600052604160045260246000fd5b600082601f830112611b7d57600080fd5b813567ffffffffffffffff80821115611b9857611b98611b56565b604051601f8301601f19908116603f01168101908282118183101715611bc057611bc0611b56565b81604052838152866020858801011115611bd957600080fd5b836020870160208301376000602085830101528094505050505092915050565b60008060408385031215611c0c57600080fd5b611c1583611ab9565b9150602083013567ffffffffffffffff811115611c3157600080fd5b611c3d85828601611b6c565b9150509250929050565b60008060408385031215611c5a57600080fd5b611c6383611ab9565b915060208301358015158114611c7857600080fd5b809150509250929050565b60008060008060808587031215611c9957600080fd5b611ca285611ab9565b9350611cb060208601611ab9565b925060408501359150606085013567ffffffffffffffff811115611cd357600080fd5b611cdf87828801611b6c565b91505092959194509250565b60008060408385031215611cfe57600080fd5b611d0783611ab9565b9150611d1560208401611ab9565b90509250929050565b600181811c90821680611d3257607f821691505b602082108103611d5257634e487b7160e01b600052602260045260246000fd5b50919050565b600060018201611d7857634e487b7160e01b600052601160045260246000fd5b5060010190565b60008351611d91818460208801611a3d565b835190830190611da5818360208801611a3d565b01949350505050565b600060208284031215611dc057600080fd5b5051919050565b60006001600160a01b03808716835280861660208401525083604083015260806060830152611df96080830184611a61565b9695505050505050565b600060208284031215611e1557600080fd5b8151610afb81611a0a565b601f82111561076857600081815260208120601f850160051c81016020861015611e475750805b601f850160051c820191505b81811015610a8557828155600101611e53565b815167ffffffffffffffff811115611e8057611e80611b56565b611e9481611e8e8454611d1e565b84611e20565b602080601f831160018114611ec95760008415611eb15750858301515b600019600386901b1c1916600185901b178555610a85565b600085815260208120601f198616915b82811015611ef857888601518255948401946001909101908401611ed9565b5085821015611f165787850151600019600388901b60f8161c191681555b5050505050600190811b01905550565b60008251611f38818460208701611a3d565b919091019291505056fea2646970667358221220b830f4ba954027b0e67e685704b2a25d6f9b35b9b94090a9e88b14d55b1365be64736f6c63430008140033","linkReferences":{}},"methodIdentifiers":{"UPGRADE_INTERFACE_VERSION()":"ad3cb1cc","approve(address,uint256)":"095ea7b3","balanceOf(address)":"70a08231","getApproved(uint256)":"081812fc","initialize(address)":"c4d66de8","isApprovedForAll(address,address)":"e985e9c5","name()":"06fdde03","owner()":"8da5cb5b","ownerOf(uint256)":"6352211e","proxiableUUID()":"52d1902d","renounceOwnership()":"715018a6","safeMint(address)":"40d097c3","safeTransferFrom(address,address,uint256)":"42842e0e","safeTransferFrom(address,address,uint256,bytes)":"b88d4fde","setApprovalForAll(address,bool)":"a22cb465","supportsInterface(bytes4)":"01ffc9a7","symbol()":"95d89b41","tokenId()":"17d70f7c","tokenURI(uint256)":"c87b56dd","transferFrom(address,address,uint256)":"23b872dd","transferOwnership(address)":"f2fde38b","upgradeToAndCall(address,bytes)":"4f1ef286"},"storageLayout":{"storage":[{"astId":54911,"contract":"src/MyNFT.sol:MyNFT","label":"tokenId","offset":0,"slot":"0","type":"t_uint256"}],"types":{"t_uint256":{"encoding":"inplace","label":"uint256","numberOfBytes":"32"}}},"id":58}