{"abi":[{"type":"constructor","inputs":[{"name":"fnOwner","type":"address","internalType":"address"}],"stateMutability":"nonpayable"},{"type":"function","name":"approve","inputs":[{"name":"to","type":"address","internalType":"address"},{"name":"tokenId","type":"uint256","internalType":"uint256"}],"outputs":[],"stateMutability":"nonpayable"},{"type":"function","name":"balanceOf","inputs":[{"name":"owner","type":"address","internalType":"address"}],"outputs":[{"name":"","type":"uint256","internalType":"uint256"}],"stateMutability":"view"},{"type":"function","name":"getApproved","inputs":[{"name":"tokenId","type":"uint256","internalType":"uint256"}],"outputs":[{"name":"","type":"address","internalType":"address"}],"stateMutability":"view"},{"type":"function","name":"isApprovedForAll","inputs":[{"name":"owner","type":"address","internalType":"address"},{"name":"operator","type":"address","internalType":"address"}],"outputs":[{"name":"","type":"bool","internalType":"bool"}],"stateMutability":"view"},{"type":"function","name":"name","inputs":[],"outputs":[{"name":"","type":"string","internalType":"string"}],"stateMutability":"view"},{"type":"function","name":"ownerOf","inputs":[{"name":"tokenId","type":"uint256","internalType":"uint256"}],"outputs":[{"name":"","type":"address","internalType":"address"}],"stateMutability":"view"},{"type":"function","name":"safeMint","inputs":[{"name":"to","type":"address","internalType":"address"}],"outputs":[],"stateMutability":"nonpayable"},{"type":"function","name":"safeTransferFrom","inputs":[{"name":"from","type":"address","internalType":"address"},{"name":"to","type":"address","internalType":"address"},{"name":"tokenId","type":"uint256","internalType":"uint256"}],"outputs":[],"stateMutability":"nonpayable"},{"type":"function","name":"safeTransferFrom","inputs":[{"name":"from","type":"address","internalType":"address"},{"name":"to","type":"address","internalType":"address"},{"name":"tokenId","type":"uint256","internalType":"uint256"},{"name":"data","type":"bytes","internalType":"bytes"}],"outputs":[],"stateMutability":"nonpayable"},{"type":"function","name":"setApprovalForAll","inputs":[{"name":"operator","type":"address","internalType":"address"},{"name":"approved","type":"bool","internalType":"bool"}],"outputs":[],"stateMutability":"nonpayable"},{"type":"function","name":"supportsInterface","inputs":[{"name":"interfaceId","type":"bytes4","internalType":"bytes4"}],"outputs":[{"name":"","type":"bool","internalType":"bool"}],"stateMutability":"view"},{"type":"function","name":"symbol","inputs":[],"outputs":[{"name":"","type":"string","internalType":"string"}],"stateMutability":"view"},{"type":"function","name":"tokenURI","inputs":[{"name":"tokenId","type":"uint256","internalType":"uint256"}],"outputs":[{"name":"","type":"string","internalType":"string"}],"stateMutability":"view"},{"type":"function","name":"transferFrom","inputs":[{"name":"from","type":"address","internalType":"address"},{"name":"to","type":"address","internalType":"address"},{"name":"tokenId","type":"uint256","internalType":"uint256"}],"outputs":[],"stateMutability":"nonpayable"},{"type":"event","name":"Approval","inputs":[{"name":"owner","type":"address","indexed":true,"internalType":"address"},{"name":"approved","type":"address","indexed":true,"internalType":"address"},{"name":"tokenId","type":"uint256","indexed":true,"internalType":"uint256"}],"anonymous":false},{"type":"event","name":"ApprovalForAll","inputs":[{"name":"owner","type":"address","indexed":true,"internalType":"address"},{"name":"operator","type":"address","indexed":true,"internalType":"address"},{"name":"approved","type":"bool","indexed":false,"internalType":"bool"}],"anonymous":false},{"type":"event","name":"Transfer","inputs":[{"name":"from","type":"address","indexed":true,"internalType":"address"},{"name":"to","type":"address","indexed":true,"internalType":"address"},{"name":"tokenId","type":"uint256","indexed":true,"internalType":"uint256"}],"anonymous":false},{"type":"error","name":"ERC721IncorrectOwner","inputs":[{"name":"sender","type":"address","internalType":"address"},{"name":"tokenId","type":"uint256","internalType":"uint256"},{"name":"owner","type":"address","internalType":"address"}]},{"type":"error","name":"ERC721InsufficientApproval","inputs":[{"name":"operator","type":"address","internalType":"address"},{"name":"tokenId","type":"uint256","internalType":"uint256"}]},{"type":"error","name":"ERC721InvalidApprover","inputs":[{"name":"approver","type":"address","internalType":"address"}]},{"type":"error","name":"ERC721InvalidOperator","inputs":[{"name":"operator","type":"address","internalType":"address"}]},{"type":"error","name":"ERC721InvalidOwner","inputs":[{"name":"owner","type":"address","internalType":"address"}]},{"type":"error","name":"ERC721InvalidReceiver","inputs":[{"name":"receiver","type":"address","internalType":"address"}]},{"type":"error","name":"ERC721InvalidSender","inputs":[{"name":"sender","type":"address","internalType":"address"}]},{"type":"error","name":"ERC721NonexistentToken","inputs":[{"name":"tokenId","type":"uint256","internalType":"uint256"}]},{"type":"error","name":"NotOwner","inputs":[]}],"bytecode":{"object":"0x60806040523480156200001157600080fd5b50604051620013e7380380620013e78339810160408190526200003491620000b9565b60405180604001604052806005815260200164135e53919560da1b815250604051806040016040528060048152602001631353919560e21b815250816000908162000080919062000190565b5060016200008f828262000190565b5050600780546001600160a01b0319166001600160a01b039390931692909217909155506200025c565b600060208284031215620000cc57600080fd5b81516001600160a01b0381168114620000e457600080fd5b9392505050565b634e487b7160e01b600052604160045260246000fd5b600181811c908216806200011657607f821691505b6020821081036200013757634e487b7160e01b600052602260045260246000fd5b50919050565b601f8211156200018b57600081815260208120601f850160051c81016020861015620001665750805b601f850160051c820191505b81811015620001875782815560010162000172565b5050505b505050565b81516001600160401b03811115620001ac57620001ac620000eb565b620001c481620001bd845462000101565b846200013d565b602080601f831160018114620001fc5760008415620001e35750858301515b600019600386901b1c1916600185901b17855562000187565b600085815260208120601f198616915b828110156200022d578886015182559484019460019091019084016200020c565b50858210156200024c5787850151600019600388901b60f8161c191681555b5050505050600190811b01905550565b61117b806200026c6000396000f3fe608060405234801561001057600080fd5b50600436106100ea5760003560e01c80636352211e1161008c578063a22cb46511610066578063a22cb465146101e1578063b88d4fde146101f4578063c87b56dd14610207578063e985e9c51461021a57600080fd5b80636352211e146101a557806370a08231146101b857806395d89b41146101d957600080fd5b8063095ea7b3116100c8578063095ea7b31461015757806323b872dd1461016c57806340d097c31461017f57806342842e0e1461019257600080fd5b806301ffc9a7146100ef57806306fdde0314610117578063081812fc1461012c575b600080fd5b6101026100fd366004610dc5565b610256565b60405190151581526020015b60405180910390f35b61011f6102f3565b60405161010e9190610e32565b61013f61013a366004610e45565b610385565b6040516001600160a01b03909116815260200161010e565b61016a610165366004610e7a565b6103ae565b005b61016a61017a366004610ea4565b6103bd565b61016a61018d366004610ee0565b610466565b61016a6101a0366004610ea4565b6104d1565b61013f6101b3366004610e45565b6104f1565b6101cb6101c6366004610ee0565b6104fc565b60405190815260200161010e565b61011f61055d565b61016a6101ef366004610efb565b61056c565b61016a610202366004610f4d565b610577565b61011f610215366004610e45565b61058e565b610102610228366004611029565b6001600160a01b03918216600090815260056020908152604080832093909416825291909152205460ff1690565b60006001600160e01b031982167f80ac58cd0000000000000000000000000000000000000000000000000000000014806102b957506001600160e01b031982167f5b5e139f00000000000000000000000000000000000000000000000000000000145b806102ed57507f01ffc9a7000000000000000000000000000000000000000000000000000000006001600160e01b03198316145b92915050565b6060600080546103029061105c565b80601f016020809104026020016040519081016040528092919081815260200182805461032e9061105c565b801561037b5780601f106103505761010080835404028352916020019161037b565b820191906000526020600020905b81548152906001019060200180831161035e57829003601f168201915b5050505050905090565b600061039082610603565b506000828152600460205260409020546001600160a01b03166102ed565b6103b982823361063c565b5050565b6001600160a01b0382166103ec57604051633250574960e11b8152600060048201526024015b60405180910390fd5b60006103f9838333610649565b9050836001600160a01b0316816001600160a01b031614610460576040517f64283d7b0000000000000000000000000000000000000000000000000000000081526001600160a01b03808616600483015260248201849052821660448201526064016103e3565b50505050565b6007546001600160a01b031633146104aa576040517f30cd747100000000000000000000000000000000000000000000000000000000815260040160405180910390fd5b600680549060006104ba83611096565b9091555060068190556104ce90829061074f565b50565b6104ec83838360405180602001604052806000815250610577565b505050565b60006102ed82610603565b60006001600160a01b038216610541576040517f89c62b64000000000000000000000000000000000000000000000000000000008152600060048201526024016103e3565b506001600160a01b031660009081526003602052604090205490565b6060600180546103029061105c565b6103b9338383610769565b6105828484846103bd565b61046084848484610821565b606061059982610603565b5060006105b160408051602081019091526000815290565b905060008151116105d157604051806020016040528060008152506105fc565b806105db8461094a565b6040516020016105ec9291906110bd565b6040516020818303038152906040525b9392505050565b6000818152600260205260408120546001600160a01b0316806102ed57604051637e27328960e01b8152600481018490526024016103e3565b6104ec83838360016109ea565b6000828152600260205260408120546001600160a01b039081169083161561067657610676818486610b35565b6001600160a01b038116156106b4576106936000856000806109ea565b6001600160a01b038116600090815260036020526040902080546000190190555b6001600160a01b038516156106e3576001600160a01b0385166000908152600360205260409020805460010190555b600084815260026020526040808220805473ffffffffffffffffffffffffffffffffffffffff19166001600160a01b0389811691821790925591518793918516917fddf252ad1be2c89b69c2b068fc378daa952ba7f163c4a11628f55a4df523b3ef91a4949350505050565b6103b9828260405180602001604052806000815250610bb2565b6001600160a01b0382166107b4576040517f5b08ba180000000000000000000000000000000000000000000000000000000081526001600160a01b03831660048201526024016103e3565b6001600160a01b03838116600081815260056020908152604080832094871680845294825291829020805460ff191686151590811790915591519182527f17307eab39ab6107e8899845ad3d59bd9653f200f220920489ca2b5937696c31910160405180910390a3505050565b6001600160a01b0383163b1561046057604051630a85bd0160e11b81526001600160a01b0384169063150b7a02906108639033908890879087906004016110ec565b6020604051808303816000875af192505050801561089e575060408051601f3d908101601f1916820190925261089b91810190611128565b60015b610907573d8080156108cc576040519150601f19603f3d011682016040523d82523d6000602084013e6108d1565b606091505b5080516000036108ff57604051633250574960e11b81526001600160a01b03851660048201526024016103e3565b805181602001fd5b6001600160e01b03198116630a85bd0160e11b1461094357604051633250574960e11b81526001600160a01b03851660048201526024016103e3565b5050505050565b6060600061095783610bc9565b600101905060008167ffffffffffffffff81111561097757610977610f37565b6040519080825280601f01601f1916602001820160405280156109a1576020820181803683370190505b5090508181016020015b600019017f3031323334353637383961626364656600000000000000000000000000000000600a86061a8153600a85049450846109ab57509392505050565b80806109fe57506001600160a01b03821615155b15610af8576000610a0e84610603565b90506001600160a01b03831615801590610a3a5750826001600160a01b0316816001600160a01b031614155b8015610a6c57506001600160a01b0380821660009081526005602090815260408083209387168352929052205460ff16155b15610aae576040517fa9fbf51f0000000000000000000000000000000000000000000000000000000081526001600160a01b03841660048201526024016103e3565b8115610af65783856001600160a01b0316826001600160a01b03167f8c5be1e5ebec7d5bd14f71427d1e84f3dd0314c0f7b2291e5b200ac8c7c3b92560405160405180910390a45b505b50506000908152600460205260409020805473ffffffffffffffffffffffffffffffffffffffff19166001600160a01b0392909216919091179055565b610b40838383610cab565b6104ec576001600160a01b038316610b6e57604051637e27328960e01b8152600481018290526024016103e3565b6040517f177e802f0000000000000000000000000000000000000000000000000000000081526001600160a01b0383166004820152602481018290526044016103e3565b610bbc8383610d31565b6104ec6000848484610821565b6000807a184f03e93ff9f4daa797ed6e38ed64bf6a1f0100000000000000008310610c12577a184f03e93ff9f4daa797ed6e38ed64bf6a1f010000000000000000830492506040015b6d04ee2d6d415b85acef81000000008310610c3e576d04ee2d6d415b85acef8100000000830492506020015b662386f26fc100008310610c5c57662386f26fc10000830492506010015b6305f5e1008310610c74576305f5e100830492506008015b6127108310610c8857612710830492506004015b60648310610c9a576064830492506002015b600a83106102ed5760010192915050565b60006001600160a01b03831615801590610d295750826001600160a01b0316846001600160a01b03161480610d0557506001600160a01b0380851660009081526005602090815260408083209387168352929052205460ff165b80610d2957506000828152600460205260409020546001600160a01b038481169116145b949350505050565b6001600160a01b038216610d5b57604051633250574960e11b8152600060048201526024016103e3565b6000610d6983836000610649565b90506001600160a01b038116156104ec576040517f73c6ac6e000000000000000000000000000000000000000000000000000000008152600060048201526024016103e3565b6001600160e01b0319811681146104ce57600080fd5b600060208284031215610dd757600080fd5b81356105fc81610daf565b60005b83811015610dfd578181015183820152602001610de5565b50506000910152565b60008151808452610e1e816020860160208601610de2565b601f01601f19169290920160200192915050565b6020815260006105fc6020830184610e06565b600060208284031215610e5757600080fd5b5035919050565b80356001600160a01b0381168114610e7557600080fd5b919050565b60008060408385031215610e8d57600080fd5b610e9683610e5e565b946020939093013593505050565b600080600060608486031215610eb957600080fd5b610ec284610e5e565b9250610ed060208501610e5e565b9150604084013590509250925092565b600060208284031215610ef257600080fd5b6105fc82610e5e565b60008060408385031215610f0e57600080fd5b610f1783610e5e565b915060208301358015158114610f2c57600080fd5b809150509250929050565b634e487b7160e01b600052604160045260246000fd5b60008060008060808587031215610f6357600080fd5b610f6c85610e5e565b9350610f7a60208601610e5e565b925060408501359150606085013567ffffffffffffffff80821115610f9e57600080fd5b818701915087601f830112610fb257600080fd5b813581811115610fc457610fc4610f37565b604051601f8201601f19908116603f01168101908382118183101715610fec57610fec610f37565b816040528281528a602084870101111561100557600080fd5b82602086016020830137600060208483010152809550505050505092959194509250565b6000806040838503121561103c57600080fd5b61104583610e5e565b915061105360208401610e5e565b90509250929050565b600181811c9082168061107057607f821691505b60208210810361109057634e487b7160e01b600052602260045260246000fd5b50919050565b6000600182016110b657634e487b7160e01b600052601160045260246000fd5b5060010190565b600083516110cf818460208801610de2565b8351908301906110e3818360208801610de2565b01949350505050565b60006001600160a01b0380871683528086166020840152508360408301526080606083015261111e6080830184610e06565b9695505050505050565b60006020828403121561113a57600080fd5b81516105fc81610daf56fea26469706673582212205ab2245711390e3f65305ed7d46f0bad1b684736171e5156c050da2605987b4e64736f6c63430008140033","linkReferences":{}},"methodIdentifiers":{"approve(address,uint256)":"095ea7b3","balanceOf(address)":"70a08231","getApproved(uint256)":"081812fc","isApprovedForAll(address,address)":"e985e9c5","name()":"06fdde03","ownerOf(uint256)":"6352211e","safeMint(address)":"40d097c3","safeTransferFrom(address,address,uint256)":"42842e0e","safeTransferFrom(address,address,uint256,bytes)":"b88d4fde","setApprovalForAll(address,bool)":"a22cb465","supportsInterface(bytes4)":"01ffc9a7","symbol()":"95d89b41","tokenURI(uint256)":"c87b56dd","transferFrom(address,address,uint256)":"23b872dd"},"storageLayout":{"storage":[{"astId":45108,"contract":"src/MyNFT.sol:MyNFT","label":"_name","offset":0,"slot":"0","type":"t_string_storage"},{"astId":45110,"contract":"src/MyNFT.sol:MyNFT","label":"_symbol","offset":0,"slot":"1","type":"t_string_storage"},{"astId":45114,"contract":"src/MyNFT.sol:MyNFT","label":"_owners","offset":0,"slot":"2","type":"t_mapping(t_uint256,t_address)"},{"astId":45118,"contract":"src/MyNFT.sol:MyNFT","label":"_balances","offset":0,"slot":"3","type":"t_mapping(t_address,t_uint256)"},{"astId":45122,"contract":"src/MyNFT.sol:MyNFT","label":"_tokenApprovals","offset":0,"slot":"4","type":"t_mapping(t_uint256,t_address)"},{"astId":45128,"contract":"src/MyNFT.sol:MyNFT","label":"_operatorApprovals","offset":0,"slot":"5","type":"t_mapping(t_address,t_mapping(t_address,t_bool))"},{"astId":47783,"contract":"src/MyNFT.sol:MyNFT","label":"_tokenId","offset":0,"slot":"6","type":"t_uint256"},{"astId":47785,"contract":"src/MyNFT.sol:MyNFT","label":"_owner","offset":0,"slot":"7","type":"t_address"}],"types":{"t_address":{"encoding":"inplace","label":"address","numberOfBytes":"20"},"t_bool":{"encoding":"inplace","label":"bool","numberOfBytes":"1"},"t_mapping(t_address,t_bool)":{"encoding":"mapping","key":"t_address","label":"mapping(address => bool)","numberOfBytes":"32","value":"t_bool"},"t_mapping(t_address,t_mapping(t_address,t_bool))":{"encoding":"mapping","key":"t_address","label":"mapping(address => mapping(address => bool))","numberOfBytes":"32","value":"t_mapping(t_address,t_bool)"},"t_mapping(t_address,t_uint256)":{"encoding":"mapping","key":"t_address","label":"mapping(address => uint256)","numberOfBytes":"32","value":"t_uint256"},"t_mapping(t_uint256,t_address)":{"encoding":"mapping","key":"t_uint256","label":"mapping(uint256 => address)","numberOfBytes":"32","value":"t_address"},"t_string_storage":{"encoding":"bytes","label":"string","numberOfBytes":"32"},"t_uint256":{"encoding":"inplace","label":"uint256","numberOfBytes":"32"}}},"id":33}